S01400004D4350323531355F546573742E7372656364
S11300000C943C000C9459000C9459000C94590025
S11300100C9459000C9459000C9459000C945900F8
S11300200C9459000C9459000C9459000C945900E8
S11300300C9459000C9459000C9459000C945900D8
S11300400C9459000C9459000C9459000C945900C8
S11300500C9459000C9459000C9459000C945900B8
S11300600C9459000C945900ED02F102F502F902C6
S1130070FD0201030503090311241FBECFEFD4E0E1
S1130080DEBFCDBF11E0A0E0B1E0EAE5F6E002C0DA
S113009005900D92AE31B107D9F721E0AEE1B1E0A0
S11300A001C01D92A633B207E1F70E945B000C94D5
S11300B02B030C9400008FEF8AB98BB95998589A86
S11300C040E063E083E00E94C40285E00E9477017F
S11300D0C9E2D1E0EE24E394F12C0BE211E0DD243B
S11300E0D39484E391E00E94A102F982E882F801AA
S11300F08081877880618083E4E3F1E080818B8371
S113010081818C83CE010E9445028EE191E00E94A0
S1130110D10180911E0190911F018130910519F048
S11301200297C9F01BC083E0599AFFE728E331E046
S1130130F15020403040E1F700C0000059989FE79B
S1130140EAE1F6E09150E040F040E1F700C0000041
S1130150815051F703C08BB18D258BB910921F01CB
S113016010921E01BECFFF920F931F93CF93DF9384
S1130170F42E24E0421719F021E0421301C05B98E9
S1130180662371F0EC016150062F10E00F5F1F4FE2
S1130190080F191F89910E941A03C017D107D1F7BC
S11301A082E0F81619F024E0F21201C05B9A80E0B4
S11301B0DF91CF911F910F91FF900895AF92BF925D
S11301C0CF92DF92EF92FF920F93CF93DF936A0166
S11301D0F22E013011F0043009F45B98662379F0B3
S11301E0EC016150A62EB12C2FEFA21AB20AA80E70
S11301F0B91E89910E941A03CA15DB05D1F7FF20A5
S113020081F0E601FA94EF2CF12C8FEFE81AF80A4A
S1130210EC0CFD1C8FEF0E941F038993EC16FD0666
S1130220C9F7023011F0043009F45B9A80E0DF91E1
S1130230CF910F91FF90EF90DF90CF90BF90AF9050
S11302400895CF93DF9300D000D0CDB7DEB7FC0183
S1130250808191819C013695279536952795369511
S1130260279529838295880F807E8A831B821C822E
S113027048E064E0CE0101960E94B3000F900F9015
S11302800F900F90DF91CF910895CF93DF9300D01B
S113029000D0CDB7DEB75B9895E099838A836B83F2
S11302A04C8344E064E0CE0101960E94B3005B9A63
S11302B00F900F900F900F90DF91CF9108950F93AF
S11302C0CF93DF9300D0CDB7DEB78A8304E021E07B
S11302D0AE014F5F5F4F61E0CE0102960E94DE00E7
S11302E089810F900F90DF91CF910F9108951F9303
S11302F0CF93DF9300D000D000D0CDB7DEB78830E5
S113030008F044C0182F229A539A44E061E080EC2C
S113031090E00E94B3008FE39CE90197F1F700C0DD
S1130320000086E0E0E0F1E0DE01119601900D921C
S11303308A95E1F7812F90E0FC01EE0FFF1FE80F93
S1130340F91FEA5FFE4F80818B8381818C838281D8
S11303508D8344E066E0CE0101960E94B30082E002
S113036089838DE08A831B8244E063E0CE01019699
S11303700E94B3008FE08A8387E08B8344E063E0CC
S1130380CE0101960E94B30080E001C081E0269670
S11303900FB6F894DEBF0FBECDBFDF91CF911F9192
S11303A00895EF92FF920F931F93CF93DF9300D0A2
S11303B01F92CDB7DEB77C0180EB0E945F01182F3E
S11303C0807416FF03C080E9898305C011230CF0F3
S11303D052C084E9898341E061E0CE0101960E9424
S11303E0B3001A821B8208E022E0AE014E5F5F4F29
S11303F060E080E090E00E94DE008A8190E0880F57
S1130400991F880F991F880F991F2B812295269574
S11304102770822BF701918380838FEF8A838B83EC
S113042048E062E0CE0102960E94B30021E0AE01F2
S11304304E5F5F4F60E080E090E00E94DE002A8122
S11304402F70922F990F990F990FF7018281877856
S1130450892B8E7F8283A7014D5F5F4F60E080E030
S113046090E00E94DE0040E062E08CE20E944501E0
S1130470177081E0810F0F900F900F90DF91CF9153
S11304801F910F91FF90EF9008950F931F93CF93B7
S1130490DF9300D01F92CDB7DEB78C0180EA0E94B3
S11304A05F0182FD02C0198209C084FD03C082E09D
S11304B0898304C086FD3CC084E08983898180648B
S11304C08A8341E061E0CE0102960E94B30068E0B5
S11304D0C8010E942101F8019281892F8695869591
S11304E086958F708B8390FF09C080648B8342E074
S11304F061E0CE0103960E94B3000CC048E061E0C5
S1130500CE0103960E94B30042E06B81C8010396BA
S11305100E94B3008981811101C081E080688983D0
S113052044E061E0CE0101960E94B300898101C0DC
S113053080E00F900F900F90DF91CF911F910F915A
S11305400895EF92FF920F93CF93DF9300D0CDB72E
S1130550DEB77C0119821A8204E022E0AE014F5F0B
S11305605F4F61E08CE190E00E94DE008981F70139
S113057081838A81808380E00F900F90DF91CF91F7
S11305800F91FF90EF900895E82F239A2498259ACD
S1130590229A8CB580658CBD613051F028F06230B0
S11305A059F0633069F00FC08CB5837F8CBD0BC0EC
S11305B08CB584608CBD07C08CB588608CBD03C0CD
S11305C08CB58C608CBD8E2F90E08830910520F521
S11305D0FC01EC5CFF4F0C9425038CB58C7F8CBD27
S11305E01BC08CB581608CBD17C08CB582608CBD7E
S11305F013C08CB583608CBD0FC08CB58C7F8CBD53
S11306000BC08CB581608CBD07C08CB582608CBD7D
S113061003C08CB583608CBD442319F0413029F0AC
S113062007C08DB58E7F8DBD03C08DB581608DBD36
S113063080E008958EBD0DB407FEFDCF08958EBDF4
S11306400DB407FEFDCF8EB50895EE0FFF1F059084
S10D0650F491E02D0994F894FFCF13
S113065A02280000000304B6E704B6D304B6C704AC
S111066AB6C302900703AC8103AC800290007B
S9030000FC
